:020000040800F2
:1000000018070020290200087F060008770600086C
:100010007B060008E3020008990A000800000000BF
:10002000000000000000000000000000250800089B
:100030009505000800000000F906000815090008F1
:10004000430200084302000843020008430200087C
:10005000430200084302000843020008430200086C
:10006000430200084302000843020008430200085C
:1000700043020008E90200084302000843020008A6
:10008000430200084302000843020008430200083C
:10009000430200084302000843020008430200082C
:1000A000430200084302000843020008430200081C
:1000B000430200084302000843020008430200080C
:1000C00043020008430200084302000843020008FC
:1000D00043020008430200084302000843020008EC
:1000E00043020008430200084302000843020008DC
:1000F00043020008430200084302000843020008CC
:1001000043020008430200084302000843020008BB
:1001100043020008430200084302000843020008AB
:10012000430200084302000843020008430200089B
:10013000430200084302000843020008430200088B
:10014000430200084302000843020008430200087B
:10015000430200084302000843020008430200086B
:10016000430200084302000843020008430200085B
:10017000430200084302000843020008430200084B
:10018000430200084302000800F002F800F03CF8C7
:100190000AA090E8000C82448344AAF10107DA45E2
:1001A00001D100F031F8AFF2090EBAE80F0013F0F8
:1001B000010F18BFFB1A43F0010318472810000075
:1001C00048100000103A24BF78C878C1FAD8520706
:1001D00024BF30C830C144BF04680C6070470000C1
:1001E0000023002400250026103A28BF78C1FBD840
:1001F000520728BF30C148BF0B6070471FB500F0E1
:10020000EBFF1FBD10B510BD00F031F81146FFF730
:10021000F5FF00F04FFD00F04FF803B4FFF7F2FFD9
:1002200003BC00F057F80000094880470948004720
:10023000FEE7FEE7FEE7FEE7FEE7FEE7FEE7FEE796
:10024000FEE7FEE704480549054A064B70470000F3
:100250003109000889010008180100201807002052
:100260001803002018030020704770477047754638
:1002700000F02CF8AE4605006946534620F0070012
:10028000854618B020B5FFF7DDFFBDE820404FF0F0
:1002900000064FF000074FF000084FF0000B21F070
:1002A0000701AC46ACE8C009ACE8C009ACE8C0093D
:1002B000ACE8C0098D46704710B50446AFF3008026
:1002C0002046BDE81040FFF7A8BF00000048704777
:1002D000B800002001491820ABBEFEE7260002004E
:1002E000704700BFFEE7000010B50B490B4800F057
:1002F00035F8002005E00A49095C0A4A1154411CFE
:10030000C8B21E28F7DB00F051FD00F035FD0121D9
:10031000024800F03DF810BD00802010406002400F
:1003200034000020520000200246094B9A4201D2BC
:10033000084801E00648103801F000531BB1064B95
:100340000B40C36002E0044B0B4083607047000029
:1003500010640240006002407D0F7D0F0246094B91
:100360009A4201D2084801E00648103801F00053D3
:100370001BB1064B0B40C36002E0044B0B40836093
:100380007047000010640240006002407D0F7D0F46
:1003900021B1026842F00102026003E0026822F02B
:1003A0000102026070470000016821F00101016054
:1003B0000021016041608160C160016121214161D2
:1003C0004A49884204D13D21484A103A91608CE064
:1003D00046491831884205D14FF47461434A103AB6
:1003E000916082E041493031884205D14FF4741167
:1003F0003E4A103A916078E03C494831884205D144
:100400004FF07461394A103A91606EE037496031BB
:10041000884204D13649354A103AD16065E0334903
:100420007831884204D13349304A103AD1605CE0D7
:100430002E499031884204D12F492C4A103AD1607C
:1004400053E02A49A831884205D14FF03D51274A4F
:10045000103AD16049E02949884204D13D21274A18
:10046000083A116041E025491831884205D14FF41E
:100470007461224A083A116037E0204930318842DD
:1004800005D14FF474111D4A083A11602DE01B4943
:100490004831884205D14FF07461184A083A11601A
:1004A00023E016496031884204D11149134A121FD2
:1004B00011601AE011497831884204D10D490F4A80
:1004C000121F116011E00D499031884204D10A4990
:1004D0000A4A121F116008E00849A831884204D175
:1004E0004FF03D51054A121F1160704710600240E5
:1004F0003D000020400F002000003D20106402401D
:1005000010B501F080034BB122B1436943F0800381
:10051000436103E0436923F08003436180290BD0EA
:100520002AB1036801F01E042343036004E003685A
:1005300001F01E04A343036010BD000010B50022AB
:100540000268134B1A40CC680B6823434C69234361
:100550008C692343CC6923430C6A23434C6A2343AD
:100560008C6A23434C6B23438C6B23431A430260F6
:10057000426922F00702D1E90B3423431A43426156
:100580000B6943604B6883608B68C36010BD0000DB
:100590003F801CF07047F0B50A460021002300247C
:1005A00000BF3DE0012505FA01F3156805EA0304E3
:1005B0009C4234D105684F000326BE40B543056018
:1005C00015794E00B5400668354305601579012D53
:1005D00002D01579022D16D185684F000326BE4042
:1005E000B543856055794E00B540866835438560D2
:1005F000456801268E40B5434560456896798E4032
:10060000B6B235434560C5684F000326BE40B543CA
:10061000C560D5794E00B540C6683543C560491CF4
:100620001029BFD3F0BDF0B5002300244D07ED0E17
:1006300002FA05F3CE1000F1200555F826504E07BA
:10064000F70E0F26BE40B543CF1000F1200646F846
:100650002750CE1000F1200555F8265045EA030436
:10066000CE1000F1200545F82640F0BD0AB1018307
:1006700000E04183704700BFFEE700BFFEE7704720
:1006800070B5002100230F22C4781CB3174C2468D6
:1006900004F4E064C4F5E064C4F30721C1F1040488
:1006A000E3B20A4144789C40E1B28478144021438B
:1006B0000C07210E0E4C05786155047804F01F05D7
:1006C0000124AC4005786D11AD0005F1E025C5F8B9
:1006D000004109E0047804F01F050124AC40054DF9
:1006E0000678761145F8264070BD00000CED00E05C
:1006F00000E400E080E100E07047000029B1064A14
:1007000012680243044B1A6004E0034A12688243F1
:10071000014B1A60704700003038024029B1064A88
:1007200012680243044B1A6004E0034A12688243D1
:10073000014B1A607047000040380240F0B50021BC
:1007400000220024022500260223324F3F6807F0D2
:100750000C0121B1042905D0082937D105E02E4F1D
:10076000076036E02D4F076033E02A4F3F1F3F6898
:10077000C7F38056274F3F1F3F6807F03F036EB116
:10078000264FB7FBF3F7DFF88CC0ACF1040CDCF8B4
:1007900000C0CCF3881C07FB0CF40CE01E4FB7FB29
:1007A000F3F7DFF870C0ACF1040CDCF800C0CCF358
:1007B000881C07FB0CF4174F3F1F3F68C7F3014726
:1007C0007F1C7D00B4FBF5F7076002E0124F076065
:1007D00000BF00BF0F4F3F6807F0F0010909104F3D
:1007E0007A5C0768D74047600A4F3F6807F4E051DA
:1007F000890A0B4F7A5C4768D7408760054F3F688E
:1008000007F46041490B064F7A5C4768D740C760E0
:10081000F0BD0000083802400024F40000127A0005
:1008200024000020704700000CB5002001900090CB
:100830003448006840F480303249086000BF3148D5
:10084000006800F4003000900198401C019000986E
:1008500018B90198B0F5A04FF1D12A48006800F40A
:10086000003010B10120009001E0002000900098BD
:10087000012846D123484030006840F0805021498B
:10088000403108602048006840F440401E4908603C
:100890001C48083000681B49083108600846006899
:1008A00040F4004008600846006840F4A05008602A
:1008B0001648091F0860081F006840F08070091F73
:1008C000086000BF0F48006800F000700028F9D0F1
:1008D00040F205700E4908600A480830006820F0B0
:1008E00003000849083108600846006840F002002B
:1008F000086000BF03480830006800F00C000828BA
:10090000F8D10CBD00380240007000400854400788
:10091000003C024001200449086004480068401C73
:100920000249086070470000200000201C000020E1
:1009300010B51548006840F470001349086013486A
:10094000006840F001001149086000200F4908319B
:1009500008600E4800680E4908400C4908600D48C0
:10096000091D0860081F006820F48020091F086026
:10097000002006490C310860FFF756FF4FF0006079
:1009800001498039086010BD88ED00E00038024060
:10099000FFFFF6FE1030002421B1828942F400529C
:1009A000828104E082894DF6FF731A40828170478C
:1009B0001AB1838A0B43838202E0838A8B4383824A
:1009C000704700002DE9FF4705460E460024A1466A
:1009D00000BFA046B08900B100BF2C8A24F4405467
:1009E000F08804432C82AC8941F20C608443B088C7
:1009F00031890843718908430443AC81AC8A24F4EB
:100A00004074B0890443AC826846FFF797FE2048E3
:100A1000854202D01F48854202D1DDF80C9001E0EA
:100A2000DDF80890A88900F4004040B109EBC90046
:100A300000EB091031684900B0FBF1F707E009EB62
:100A4000C90000EB091031688900B0FBF1F76420A0
:100A5000B7FBF0F004012009642101FB1078A8899C
:100A600000F4004040B1322000EBC800B0FBF1F0D0
:100A700000F00700044308E0322000EB0810642176
:100A8000B0FBF1F000F00F0004432C81BDE8FF87BC
:100A9000001001400014014000BFFEE710B50446FD
:100AA00001211020FFF73AFE42F2CF000C490885E1
:100AB000601EC862002048620120888200200882EF
:100AC0000120088000BF0648008A0028FBD00020D3
:100AD0000349088000211020FFF720FE10BD000010
:100AE0000010004010B5044601211020FFF716FE4B
:100AF00053200C490885601EC8620020486201200E
:100B00008882002008820120088000BF0548008AF2
:100B10000028FBD000200349088000211020FFF7A7
:100B2000FDFD10BD0010004000B597B00121084642
:100B3000FFF7E4FD0121C804FFF7F0FD012148059E
:100B4000FFF7DCFD082200215548FFF76CFD082265
:100B500001215348FFF767FD0120159002208DF811
:100B6000580000208DF85A0001208DF85B0002200B
:100B70008DF8590015A94A48FFF70DFD0220159080
:100B80008DF8580015A94648FFF705FD4FF4E130F0
:100B900011900020ADF84800ADF84A00ADF84C00C7
:100BA000ADF850000C20ADF84E0011A93D48FFF7FC
:100BB00009FF01213B48FFF7EFFE012240213948A0
:100BC000FFF7F6FE012280213648FFF7F1FE4FF0D5
:100BD000006002903348001D0390334804900020C9
:100BE00005901E200690002007904FF4806008902A
:100BF000002009900A900B904FF400300C900020D8
:100C00000D9001200E9000200F90109002A927480F
:100C1000FFF794FC01212548FFF7BAFB2348303049
:100C2000FFF7C2FB4FF0006002901E48001D0390CA
:100C30001F480490402005901E2006900020079039
:100C40004FF480600890002009900A900B904FF4B8
:100C500000300C9000200D9001200E9000200F908D
:100C6000109002A911483030FFF768FC01210F48AD
:100C70003030FFF78DFB0D208DF8040000208DF83B
:100C800005008DF8060001208DF8070001A8FFF788
:100C9000F7FC012210210548FFF732FC17B000BD18
:100CA00000000240004C0040340000204060024040
:100CB000000000201CB52B4800686422B0FBF2F154
:100CC000481EB0F1807F00D31BE0481E4FF0E022A9
:100CD000506150170F22002807DA13071D0E224B10
:100CE00000F00F04241F1D5503E013071C0E1F4BBB
:100CF0001C5400BF00204FF0E022906107201061DB
:100D000000BFFFF711FF01210846FFF7F7FC0121A3
:100D10000820FFF7F3FCFC20009001208DF8040070
:100D200000208DF8060003208DF8050000208DF8C6
:100D3000070069460E48FFF72EFC4FF4FC40009078
:100D400001208DF8040000208DF8060003208DF8A6
:100D5000050000208DF8070069460648FFF71BFCD8
:100D600000BFFEE70800002018ED00E000E400E00E
:100D700000000240000C024010B5652008490870D0
:100D80003020487007490848FFF7CEFA022006498C
:100D90007039486701210448FFF7FAFA10BD0000D6
:100DA00000000020200000207060024010B50024E8
:100DB000FDE08148005D562875D014DC4C2873D0C6
:100DC00008DC422871D043287FD044286FD04628C1
:100DD00026D15DE04D286BD04E286AD0522836D0FF
:100DE0005528F5D112E0662864D008DC582844D094
:100DF0005A2821D0622873D06428E9D1BFE06C283A
:100E00006FD072282ED07528E2D10AE04FF4FA7222
:100E10000021642000F0B4F941F28830FFF73EFE73
:100E2000C3E04FF4FA720121642000F0A9F941F205
:100E30008830FFF733FEB8E04FF4FA720021C82083
:100E400000F09EF941F28830FFF728FEADE04FF444
:100E5000FA720021642000F067F941F28830FFF750
:100E60001DFEA2E04FF4FA720121642000F05CF94B
:100E700041F28830FFF712FE97E04FF4FA7200213A
:100E8000C82000F051F941F28830FFF707FE8CE0EE
:100E90004FF4FA720021642000F0ECF841F288303F
:100EA000FFF7FCFD81E033E03DE01BE00DE05BE09F
:100EB00070E04EE04FF4FA720121642000F0DAF89D
:100EC00041F28830FFF7EAFD6FE04FF4FA7200213B
:100ED000C82000F0CFF841F28830FFF7DFFD64E072
:100EE0000BE02BE04FF4FA720021642000F066F86A
:100EF00041F28830FFF7D2FD57E04FF4FA7201213A
:100F0000642000F05BF841F28830FFF7C7FD4CE049
:100F10004FF4FA720021C82000F050F841F28830F6
:100F2000FFF7BCFD41E04FF4FA720021642000F0AD
:100F3000CDF841F28830FFF7B1FD36E04FF4FA7298
:100F40000121642000F0C2F841F28830FFF7A6FDCD
:100F50002BE04FF4FA720021C82000F0B7F841F2FC
:100F60008830FFF79BFD20E04FF4FA7200216420E7
:100F700000F052F841F28830FFF790FD15E04FF491
:100F8000FA720121642000F047F841F28830FFF73F
:100F900085FD0AE04FF4FA720021C82000F03CF809
:100FA00041F28830FFF77AFD00BF00BF641C322C8D
:100FB000FFF6FFAE10BD0000520000202DE9F04109
:100FC00006460C461746012C05D10122490211485C
:100FD000FFF74CFB06E02CB900224FF400710D48DE
:100FE000FFF744FB002511E0012291020948FFF7B9
:100FF0003DFB3846FFF776FD00224FF4806105483F
:10100000FFF734FB3846FFF76DFD6D1CB542EBDB97
:10101000BDE8F081000C02402DE9F04106460C4687
:101020001746012C05D1012249031148FFF71EFB89
:1010300006E02CB900224FF400510D48FFF716FBD3
:10104000002511E0012291030948FFF70FFB384604
:10105000FFF748FD00224FF480410548FFF706FBEB
:101060003846FFF73FFD6D1CB542EBDBBDE8F08174
:10107000000C02402DE9F04106460C461746012CB3
:1010800005D1012240211048FFF7F0FA05E024B90C
:10109000002240210C48FFF7E9FA002510E0012268
:1010A00080210948FFF7E2FA3846FFF71BFD0022CE
:1010B00080210548FFF7DAFA3846FFF713FD6D1C6B
:1010C000B542ECDBBDE8F081000002402DE9F041C3
:1010D00006460C461746012C05D10122C9021148CB
:1010E000FFF7C4FA06E02CB900224FF400610D4866
:1010F000FFF7BCFA002511E0012211030948FFF7B0
:10110000B5FA3846FFF7EEFC00224FF4805105484F
:10111000FFF7ACFA3846FFF7E5FC6D1CB542EBDB98
:10112000BDE8F081000C02402DE9F04106460C4676
:101130001746012C05D1012210211048FFF796FA1D
:1011400005E024B9002210210C48FFF78FFA002592
:1011500010E0012220210948FFF788FA3846FFF7FE
:10116000C1FC002220210548FFF780FA3846FFF72E
:10117000B9FC6D1CB542ECDBBDE8F081000002401B
:101180002DE9F04106460C461746012C05D10122F7
:1011900004211048FFF76AFA05E024B9002204216F
:1011A0000C48FFF763FA002510E0012208210948E6
:1011B000FFF75CFA3846FFF795FC00220821054846
:1011C000FFF754FA3846FFF78DFC6D1CB542ECDB97
:1011D000BDE8F081000002404FF04070E1EE100ADF
:1011E00070470000041200080000002034000000D6
:1011F000C40100083812000834000020E406000092
:10120000E00100080000000000000000007A030A6E
:1012100000000000000000000102030406070809A6
:1012200000000000000000000000000001020304B4
:0812300001020304060708098E
:040000050800018965
:00000001FF
